:100000000C942A000C94780C0C94AB0C0C94DE0C21
:100010000C9447000C9447000C9447000C94470044
:100020000C9447000C9447000C9447000C94470034
:100030000C9447000C9447000C9447000C94470024
:100040000C9447000C9447000C9447000C94470014
:100050000C94470011241FBECFE5D8E0DEBFCDBF12
:1000600010E0A0E6B0E0E6EAFDE202C005900D92E5
:10007000A63EB107D9F710E0A6EEB0E001C01D9290
:10008000AD3EB107E1F70E949A0E0C94D1160C9484
:100090000000EF92FF920F931F937B018C0120E0F1
:1000A00030E040E05FE40E94490388238CF0C801FF
:1000B000B70120E030E040E05FE40E94C1010E940F
:1000C000A9039B01AC01205030404040504806C07D
:1000D000C801B7010E94A9039B01AC01B901CA0183
:1000E0001F910F91FF90EF900895A0E0B0E0EBE733
:1000F000F0E00C949A16DC012B01FA019C919230ED
:1001000008F439C1EB018881823008F433C194309E
:1001100069F4843009F02FC111969C91119789815F
:10012000981709F428C1AAEBB0E025C1843009F47E
:1001300021C18230A9F4923009F01DC19A01AD01AC
:1001400088E0EA010990AE01E90109929E0181501F
:10015000C1F7E201898111969C918923818308C1AD
:10016000923009F407C112962D903C901397EB0141
:100170008A819B811496AD90BD90CD90DC901797AD
:10018000EC80FD800E811F819101281B390BB90184
:1001900037FF04C066277727621B730B6032710537
:1001A0000CF061C0121613066CF537014801062EDB
:1001B00004C096948794779467940A94D2F721E0C8
:1001C00030E040E050E004C0220F331F441F551FB1
:1001D0006A95D2F721503040404050402E213F21B7
:1001E00040235123211531054105510521F021E01E
:1001F00030E040E050E079018A01E628F72808293C
:1002000019293CC0232BD1F1260E371E350146019A
:10021000062E04C096948794779467940A94D2F734
:1002200021E030E040E050E004C0220F331F441FC3
:10023000551F6A95D2F721503040404050402A2146
:100240003B214C215D21211531054105510521F04E
:1002500021E030E040E050E059016A01A628B728CB
:10026000C828D9280BC0821593052CF01C01AA249C
:10027000BB24650103C0EE24FF24870111969C91E5
:10028000D20111968C91981709F445C0992339F041
:10029000A80197012A193B094C095D0906C0A6016E
:1002A00095012E193F09400B510B57FD08C01182D3
:1002B0003382228224833583468357831DC081E0A5
:1002C00081833382228288279927DC01821B930B4A
:1002D000A40BB50B84839583A683B7830DC0220F2F
:1002E000331F441F551F24833583468357838281E0
:1002F000938101979383828324813581468157813D
:10030000DA01C9010197A109B1098F5F9F4FAF4F72
:10031000BF4328F30BC0918333822282EA0CFB1C7B
:100320000C1D1D1DE482F5820683178383E0808304
:10033000248135814681578157FF1AC0C901AA27F8
:1003400097FDA095BA2F81709070A070B0705695EF
:10035000479537952795822B932BA42BB52B848318
:100360009583A683B7838281938101969383828349
:10037000DF0101C0D201CD01CDB7DEB7E2E10C94BF
:10038000B616A0E2B0E0E7ECF1E00C94A6166983A3
:100390007A838B839C832D833E834F835887E9E048
:1003A000EE2EF12CEC0EFD1ECE010196B7010E943F
:1003B000D2048E010F5E1F4FCE010596B8010E9438
:1003C000D2048A8991E089278A8BC701B801AE01DE
:1003D000475E5F4F0E9475000E94FD03A096E6E015
:1003E0000C94C216A0E2B0E0E8EFF1E00C94A6167F
:1003F00069837A838B839C832D833E834F835887C5
:10040000F9E0EF2EF12CEC0EFD1ECE010196B701A6
:100410000E94D2048E010F5E1F4FCE010596B801D7
:100420000E94D204C701B801AE01475E5F4F0E942F
:1004300075000E94FD03A096E6E00C94C216A0E2AF
:10044000B0E0E5E2F2E00C949A1669837A838B833C
:100450009C832D833E834F835887CE010196BE0136
:10046000675F7F4F0E94D204CE010596BE016F5E8A
:100470007F4F0E94D2049985923088F0898982301A
:10048000C8F0943019F4823051F404C0843029F457
:10049000923081F48AEB90E0C6C0923049F420E0BB
:1004A0009A858A89981321E02A87CE010996BBC0D4
:1004B000823049F420E09A858A89981321E02A8BBA
:1004C000CE014196B0C02D843E844F8458886D88FB
:1004D0007E888F88988CEE24FF248701AA24BB2471
:1004E000650140E050E060E070E0E0E0F0E0C10174
:1004F00081709070892BE9F0E60CF71C081D191D1E
:100500009A01AB012A0D3B1D4C1D5D1D80E090E062
:10051000A0E0B0E0E614F7040805190520F481E036
:1005200090E0A0E0B0E0BA01A901480F591F6A1F8E
:100530007B1FAA0CBB1CCC1CDD1C97FE08C081E0F5
:1005400090E0A0E0B0E0A82AB92ACA2ADB2A3196B6
:10055000E032F10549F0660C771C881C991C569412
:10056000479437942794C3CFFA85EA892B893C892D
:100570008B859C85280F391F2E5F3F4F17C0CA01FE
:1005800081709070892B61F016950795F794E79428
:1005900080E090E0A0E0B0E8E82AF92A0A2B1B2BC3
:1005A00076956795579547952F5F3F4F77FDE7CF36
:1005B0000CC0440F551F661F771F17FD4160EE0CDE
:1005C000FF1C001F111F21503040403090E05907A0
:1005D00090E0690790E4790760F32B8F3C8FDB0193
:1005E000CA018F779070A070B07080349105A1051A
:1005F000B10561F447FD0AC0E114F10401051105DC
:1006000029F0405C5F4F6F4F7F4F40781A8EFE1786
:1006100011F081E08A8F4D8F5E8F6F8F78A383E01A
:10062000898FCE0149960E94FD03A096E2E10C94C9
:10063000B616A8E1B0E0EFE1F3E00C94A6166983EA
:100640007A838B839C832D833E834F83588789E0F5
:10065000E82EF12CEC0EFD1ECE010196B7010E9492
:10066000D2048E010F5E1F4FCE010596B8010E9485
:10067000D2048985823040F08989823028F0C70110
:10068000B8010E944A0501C08FEF6896E6E00C941D
:10069000C216A8E1B0E0EFE4F3E00C94A61669837B
:1006A0007A838B839C832D833E834F83588789E095
:1006B000E82EF12CEC0EFD1ECE010196B7010E9432
:1006C000D2048E010F5E1F4FCE010596B8010E9425
:1006D000D2048985823040F08989823028F0C701B0
:1006E000B8010E944A0501C08FEF6896E6E00C94BD
:1006F000C216A8E1B0E0EFE7F3E00C94A616698318
:100700007A838B839C832D833E834F83588789E034
:10071000E82EF12CEC0EFD1ECE010196B7010E94D1
:10072000D2048E010F5E1F4FCE010596B8010E94C4
:10073000D2048985823040F08989823028F0C7014F
:10074000B8010E944A0501C081E06896E6E00C9479
:10075000C216ACE0B0E0EFEAF3E00C94AA166983AD
:100760007A838B839C83CE010196BE016B5F7F4FA2
:100770000E94D2048D81823061F1823050F1843048
:1007800021F48E81882351F12EC02F81388537FDC9
:1007900020C06E812F3131051CF06623F9F023C093
:1007A0008EE190E0821B930B29853A854B855C8511
:1007B00004C056954795379527958A95D2F76623B5
:1007C000B1F050954095309521953F4F4F4F5F4F79
:1007D0000EC020E030E040E050E009C02FEF3FEFD6
:1007E0004FEF5FE704C020E030E040E050E8B9019F
:1007F000CA012C96E2E00C94C616DF92EF92FF92AB
:100800000F931F93FC01E480F58006811781D1804E
:100810008081823048F480E090E0A0E1B0E0E82AF6
:10082000F92A0A2B1B2BA5C0843009F49FC0823003
:1008300021F4EE24FF24870105C0E114F104010531
:10084000110519F4E0E0F0E096C0628173819FEF3A
:10085000623879070CF05BC022E83FEF261B370BAC
:100860002A3131052CF020E030E040E050E02AC091
:10087000B801A701022E04C0769567955795479554
:100880000A94D2F781E090E0A0E0B0E004C0880FC5
:10089000991FAA1FBB1F2A95D2F70197A109B10979
:1008A0008E219F21A023B1230097A105B10521F03E
:1008B00081E090E0A0E0B0E09A01AB01282B392B59
:1008C0004A2B5B2BDA01C9018F779070A070B07052
:1008D00080349105A105B10539F427FF09C0205CDA
:1008E0003F4F4F4F5F4F04C0215C3F4F4F4F5F4F13
:1008F000E0E0F0E02030A0E03A07A0E04A07A0E402
:100900005A0710F0E1E0F0E079018A0127C0603871
:10091000710564F5FB01E158FF4FD801C7018F77DE
:100920009070A070B07080349105A105B10539F4C4
:10093000E7FE0DC080E490E0A0E0B0E004C08FE3EB
:1009400090E0A0E0B0E0E80EF91E0A1F1B1F17FFA1
:1009500005C016950795F794E794319687E01695AC
:100960000795F794E7948A95D1F705C0EE24FF2404
:100970008701EFEFF0E06E2F679566276795902F60
:100980009F77D794DD24D7948E2F8695492F462BB9
:10099000582F5D29B701CA011F910F91FF90EF9069
:1009A000DF900895FC01DB01408151812281622F9B
:1009B0006F7770E0221F2227221F9381892F880FD3
:1009C000822B282F30E0991F9927991F11969C930D
:1009D000119721153105A9F54115510561057105DD
:1009E00011F482E037C082E89FEF13969C938E93B8
:1009F00012979A01AB0167E0220F331F441F551F66
:100A00006A95D1F783E08C930DC0220F331F441FEA
:100A1000551F12968D919C911397019713969C9355
:100A20008E931297203080E0380780E0480780E4FA
:100A3000580758F314962D933D934D935C93179755
:100A400008952F3F310579F4411551056105710570
:100A500019F484E08C93089564FF03C081E08C93C3
:100A600012C01C9210C02F57304013963C932E9307
:100A7000129783E08C9387E0440F551F661F771F02
:100A80008A95D1F7706414964D935D936D937C9322
:100A9000179708951F93DC01FB019C91923008F495
:100AA00047C08081823008F443C0943051F41196DD
:100AB0001C91843099F58181682F70E0611B710968
:100AC0003FC0843021F0923031F48230B9F181811D
:100AD000882389F12DC011961C9111978230F1F075
:100AE00081811817D9F412962D913C911397828128
:100AF00093818217930794F028173907BCF0149656
:100B00008D919D910D90BC91A02D248135814681C0
:100B10005781281739074A075B0718F4112341F05A
:100B20000AC082179307A407B50740F4112319F0F0
:100B300061E070E005C06FEF7FEF02C060E070E041
:100B4000CB011F910895DF93CF93CDB7DEB72F97D9
:100B50000FB6F894DEBF0FBECDBF8F8783E065E090
:100B600040E00E94840883E066E040E00E94840840
:100B700082E06F850E94960983E067E041E00E9471
:100B8000840880E090E0A0E0B0E48B879C87AD878C
:100B9000BE876B857C858D859E8520E030E04AEFA1
:100BA00054E40E941F02DC01CB018F839887A98740
:100BB000BA876F81788589859A8520E030E040E8A2
:100BC0005FE30E94790388232CF481E090E09E8308
:100BD0008D833FC06F81788589859A8520E03FEFBE
:100BE0004FE757E40E94190318164CF56B857C8576
:100BF0008D859E8520E030E040E251E40E941F0296
:100C0000DC01CB01BC01CD010E944900DC01CB011C
:100C10009E838D830FC088EC90E09C838B838B81B7
:100C20009C810197F1F79C838B838D819E81019735
:100C30009E838D838D819E81009769F714C06F819B
:100C4000788589859A850E944900DC01CB019E83C5
:100C50008D838D819E819A83898389819A81019771
:100C6000F1F79A83898383E067E040E00E9484087B
:100C70002F960FB6F894DEBF0FBECDBFCF91DF9198
:100C80000895DF93CF93CDB7DEB72F970FB6F894C3
:100C9000DEBF0FBECDBF8F8783E065E041E00E94DD
:100CA000840883E066E040E00E94840882E06F856B
:100CB0000E94960983E067E041E00E94840880E09A
:100CC00090E0A0E0B0E48B879C87AD87BE876B8502
:100CD0007C858D859E8520E030E04AEF54E40E94BB
:100CE0001F02DC01CB018F839887A987BA876F81A8
:100CF000788589859A8520E030E040E85FE30E94AE
:100D0000790388232CF481E090E09E838D833FC09B
:100D10006F81788589859A8520E03FEF4FE757E41A
:100D20000E94190318164CF56B857C858D859E8570
:100D300020E030E040E251E40E941F02DC01CB01E0
:100D4000BC01CD010E944900DC01CB019E838D8353
:100D50000FC088EC90E09C838B838B819C810197F2
:100D6000F1F79C838B838D819E8101979E838D8378
:100D70008D819E81009769F714C06F817885898580
:100D80009A850E944900DC01CB019E838D838D8171
:100D90009E819A83898389819A810197F1F79A8349
:100DA000898383E067E040E00E9484082F960FB6B5
:100DB000F894DEBF0FBECDBFCF91DF910895DF93D2
:100DC000CF93CDB7DEB72E970FB6F894DEBF0FBE28
:100DD000CDBF80E090E0A0E2B2E48B879C87AD8736
:100DE000BE876B857C858D859E8520E030E04AEF4F
:100DF00054E40E941F02DC01CB018F839887A987EE
:100E0000BA876F81788589859A8520E030E040E84F
:100E10005FE30E94790388232CF481E090E09E83B5
:100E20008D833FC06F81788589859A8520E03FEF6B
:100E30004FE757E40E94190318164CF56B857C8523
:100E40008D859E8520E030E040E251E40E941F0243
:100E5000DC01CB01BC01CD010E944900DC01CB01CA
:100E60009E838D830FC088EC90E09C838B838B8165
:100E70009C810197F1F79C838B838D819E810197E3
:100E80009E838D838D819E81009769F714C06F8149
:100E9000788589859A850E944900DC01CB019E8373
:100EA0008D838D819E819A83898389819A8101971F
:100EB000F1F79A83898388E30E94A3058CE00E945E
:100EC000A30581E00E94A3052E960FB6F894DEBF1D
:100ED0000FBECDBFCF91DF910895DF93CF9300D0A8
:100EE0000F92CDB7DEB79B838A8319820EC08981AA
:100EF000282F30E08A819B81FC01E20FF31F808163
:100F00000E94410689818F5F89838981282F30E083
:100F10008A819B81FC01E20FF31F8081882339F7CE
:100F20000F900F900F90CF91DF910895DF93CF93A3
:100F3000CDB7DEB72E970FB6F894DEBF0FBECDBF8C
:100F40006B877C878D879E878AE08A871E821F82B7
:100F5000188619861D8280E09AECAAE9BBE3898392
:100F60009A83AB83BC838AE08A878B859C85AD8519
:100F7000BE8529813A814B815C81BC01CD010E94F3
:100F80007816DA01C9010097A105B10519F48D8120
:100F90008130E9F581E08D838B859C85AD85BE85AB
:100FA00029813A814B815C81BC01CD010E94781678
:100FB000DA01C9018E839F83A887B9878E819F81BB
:100FC000A885B9858A309105A105B105B0F58E8156
:100FD000805D0E9441068E819F81A885B985298107
:100FE0003A814B815C81BC01CD010E9459169B0165
:100FF000AC018B859C85AD85BE85BC01CD010E9471
:101000007816DC01CB018B879C87AD87BE878981F1
:101010009A81AB81BC812AE030E040E050E0BC0125
:10102000CD010E947816DA01C90189839A83AB83C6
:10103000BC838A8581508A8798CF2E960FB6F89404
:10104000DEBF0FBECDBFCF91DF910895DF93CF9369
:1010500000D00F92CDB7DEB78A836B838B81882354
:1010600019F48A81898306C08B81813019F48A81C1
:10107000805C8983898180580E94A3050F900F901E
:101080000F90CF91DF910895DF93CF93CDB7DEB767
:1010900027970FB6F894DEBF0FBECDBF9C838B831E
:1010A0006D834E832F838D81882F90E0880F991F49
:1010B000880F991F880F991F8A838A81805C0E94FC
:1010C000A30519820EC08981282F30E08B819C8175
:1010D000FC01E20FF31F80810E94410689818F5F2E
:1010E00089838981883078F38E816F810E942608F8
:1010F0008D810E94410627960FB6F894DEBF0FBE81
:10110000CDBFCF91DF910895DF93CF93CDB7DEB7F9
:1011100028970FB6F894DEBF0FBECDBF8A836B83CE
:101120004C8319828B81883008F0F4C08C8188232D
:1011300009F077C08A81282F30E038872F838F818C
:1011400098858130910559F12F81388522303105FC
:101150002CF48F819885009769F060C02F813885C5
:101160002230310589F18F8198858330910509F40A
:1011700040C054C0ABE3B0E0EBE3F0E08081482F27
:101180008B81282F30E081E090E0022E02C0880F92
:10119000991F0A94E2F7809584238C93BDC0A8E33D
:1011A000B0E0E8E3F0E08081482F8B81282F30E029
:1011B00081E090E0022E02C0880F991F0A94E2F7A6
:1011C000809584238C93A8C0A5E3B0E0E5E3F0E02C
:1011D0008081482F8B81282F30E081E090E0022E23
:1011E00002C0880F991F0A94E2F7809584238C939C
:1011F00093C0A2E3B0E0E2E3F0E08081482F8B816E
:10120000282F30E081E090E0022E02C0880F991F65
:101210000A94E2F7809584238C937EC081E08983D1
:101220007BC08C81813009F072C08A81282F30E028
:101230003E832D838D819E818130910549F12D81E1
:101240003E81223031052CF48D819E81009761F022
:101250005BC02D813E812230310571F18D819E81EF
:1012600083309105E9F150C0ABE3B0E0EBE3F0E08F
:101270008081482F8B81282F30E081E090E0022E82
:1012800002C0880F991F0A94E2F7842B8C9344C004
:10129000A8E3B0E0E8E3F0E08081482F8B81282FBD
:1012A00030E081E090E0022E02C0880F991F0A947E
:1012B000E2F7842B8C9330C0A5E3B0E0E5E3F0E0E7
:1012C0008081482F8B81282F30E081E090E0022E32
:1012D00002C0880F991F0A94E2F7842B8C931CC0DC
:1012E000A2E3B0E0E2E3F0E08081482F8B81282F79
:1012F00030E081E090E0022E02C0880F991F0A942E
:10130000E2F7842B8C9308C081E0898305C081E0DB
:10131000898302C081E08983898128960FB6F89479
:10132000DEBF0FBECDBFCF91DF910895DF93CF9386
:1013300000D000D00F92CDB7DEB78A836B831982BD
:101340008A81282F30E03D832C838C819D818130E0
:101350009105D1F02C813D81223031052CF48C8116
:101360009D81009761F01FC02C813D8122303105A5
:1013700081F08C819D818330910581F014C0EBE375
:10138000F0E08B81808311C0E8E3F0E08B81808303
:101390000CC0E5E3F0E08B81808307C0E2E3F0E07E
:1013A0008B81808302C081E0898389810F900F90B7
:1013B0000F900F900F90CF91DF910895DF93CF930F
:1013C000CDB7DEB727970FB6F894DEBF0FBECDBFFF
:1013D0008A836B835D834C8319828C819D81009706
:1013E00009F478C08B81883008F074C08A81282F76
:1013F00030E03F832E834E815F814130510559F1AA
:101400008E819F818230910534F42E813F81211598
:10141000310569F05CC04E815F814230510579F140
:101420008E819F818330910509F43DC050C0E9E36E
:10143000F0E08081282F30E08B81882F90E0A90197
:1014400002C0559547958A95E2F7CA018170EC81F3
:10145000FD81808341C0E6E3F0E08081282F30E009
:101460008B81882F90E0A90102C0559547958A95F8
:10147000E2F7CA018170EC81FD8180832DC0E3E336
:10148000F0E08081282F30E08B81882F90E0A90147
:1014900002C0559547958A95E2F7CA018170EC81A3
:1014A000FD81808319C0E0E3F0E08081282F30E0E7
:1014B0008B81882F90E0A90102C0559547958A95A8
:1014C000E2F7CA018170EC81FD81808305C081E073
:1014D000898302C081E08983898127960FB6F894B9
:1014E000DEBF0FBECDBFCF91DF910895DF93CF93C5
:1014F00000D000D00F92CDB7DEB78A836B831982FC
:101500008B81883008F071C08A81282F30E03D83BC
:101510002C838C819D818130910549F12C813D8105
:10152000223031052CF48C819D81009761F05BC0E5
:101530002C813D812230310571F18C819D81833078
:101540009105E9F150C0ABE3B0E0EBE3F0E080815E
:10155000482F8B81282F30E081E090E0022E02C0DE
:10156000880F991F0A94E2F784278C933EC0A8E362
:10157000B0E0E8E3F0E08081482F8B81282F30E055
:1015800081E090E0022E02C0880F991F0A94E2F7D2
:1015900084278C932AC0A5E3B0E0E5E3F0E08081E6
:1015A000482F8B81282F30E081E090E0022E02C08E
:1015B000880F991F0A94E2F784278C9316C0A2E340
:1015C000B0E0E2E3F0E08081482F8B81282F30E00B
:1015D00081E090E0022E02C0880F991F0A94E2F782
:1015E00084278C9302C081E0898389810F900F90BA
:1015F0000F900F900F90CF91DF910895DF93CF93CD
:10160000CDB7DEB7A5E5B0E0E5E5F0E080818E7FFF
:101610008C93A5E5B0E0E5E5F0E0808182608C93F5
:10162000ABE5B0E0EBE5F0E0808180648C93CF9196
:10163000DF910895DF93CF93CDB7DEB7A5E5B0E096
:10164000E5E5F0E080818B7F8C93A5E5B0E0E5E5F2
:10165000F0E0808188608C93ABE5B0E0EBE5F0E0F2
:10166000808180688C93CF91DF910895DF93CF9331
:10167000CDB7DEB72B970FB6F894DEBF0FBECDBF48
:101680008A836B8319828B81282F30E03B872A87DE
:101690008A859B858130910509F46AC02A853B853E
:1016A0002230310509F4C3C08A859B85009709F073
:1016B000EEC08A81282F30E0398728878885998570
:1016C0008230910529F1288539852330310534F49C
:1016D000888599858130910561F047C028853985D5
:1016E0002330310521F1888599858430910571F188
:1016F0003CC0A5E5B0E0E5E5F0E080818E7F8C930D
:10170000A5E5B0E0E5E5F0E080818D7F8C93C1C078
:10171000A5E5B0E0E5E5F0E0808181608C93A5E58A
:10172000B0E0E5E5F0E080818D7F8C93B2C0A5E567
:10173000B0E0E5E5F0E080818E7F8C93A5E5B0E038
:10174000E5E5F0E0808182608C93A3C0A5E5B0E080
:10175000E5E5F0E0808181608C93A5E5B0E0E5E50A
:10176000F0E0808182608C9394C081E0898391C095
:101770008A81282F30E03F832E838E819F818230A3
:10178000910529F12E813F812330310534F48E817A
:101790009F818130910561F047C02E813F812330C8
:1017A000310521F18E819F818430910571F13CC01A
:1017B000A5E5B0E0E5E5F0E080818B7F8C93A5E5C1
:1017C000B0E0E5E5F0E08081877F8C9362C0A5E51D
:1017D000B0E0E5E5F0E0808184608C93A5E5B0E0C1
:1017E000E5E5F0E08081877F8C9353C0A5E5B0E00C
:1017F000E5E5F0E080818B7F8C93A5E5B0E0E5E541
:10180000F0E0808188608C9344C0A5E5B0E0E5E518
:10181000F0E0808184608C93A5E5B0E0E5E5F0E040
:10182000808188608C9335C081E0898332C08A8151
:10183000282F30E03D832C838C819D81833091055E
:10184000A1F02C813D8124303105F1F4A4E5B0E014
:10185000E4E5F0E0808180648C93A5E5B0E0E5E507
:10186000F0E0808188608C9314C0A4E5B0E0E4E5EA
:10187000F0E080818F7B8C93A5E5B0E0E5E5F0E0BA
:10188000808188608C9305C081E0898302C081E0FB
:10189000898389812B960FB6F894DEBF0FBECDBF2A
:1018A000CF91DF910895DF93CF9300D000D0CDB7D3
:1018B000DEB79B838A836C8319828A819B81009720
:1018C00069F08C81882F90E0880F991FFC01EA5104
:1018D000FF4F8A819B819183808302C082E089834C
:1018E00089810F900F900F900F90CF91DF91089505
:1018F0001F920F920FB60F9211242F933F934F9385
:101900005F936F937F938F939F93AF93BF93EF9367
:10191000FF93DF93CF93CDB7DEB78091E600909130
:10192000E700009729F0E091E600F091E7000995C3
:10193000CF91DF91FF91EF91BF91AF919F918F91E7
:101940007F916F915F914F913F912F910F900FBEBB
:101950000F901F9018951F920F920FB60F9211249F
:101960002F933F934F935F936F937F938F939F93A7
:10197000AF93BF93EF93FF93DF93CF93CDB7DEB7D2
:101980008091E8009091E900009729F0E091E8004B
:10199000F091E9000995CF91DF91FF91EF91BF910F
:1019A000AF919F918F917F916F915F914F913F91F7
:1019B0002F910F900FBE0F901F9018951F920F92AE
:1019C0000FB60F9211242F933F934F935F936F9312
:1019D0007F938F939F93AF93BF93EF93FF93DF9387
:1019E000CF93CDB7DEB78091EA009091EB000097DE
:1019F00029F0E091EA00F091EB000995CF91DF9199
:101A0000FF91EF91BF91AF919F918F917F916F91D6
:101A10005F914F913F912F910F900FBE0F901F90AC
:101A20001895DF93CF93CDB7DEB7AFE5B0E0EFE524
:101A3000F0E0808180688C93CF91DF910895DF93EF
:101A4000CF93CDB7DEB7AFE5B0E0EFE5F0E0808152
:101A50008F778C93CF91DF910895DF93CF93CDB79C
:101A6000DEB7A2970FB6F894DEBF0FBECDBF8FEFE3
:101A70008983CE0105969F8F8E8FE6EDF0E0F9A366
:101A8000E8A3F0E1FAA3E8A1F9A1008088A199A157
:101A9000019699A388A3EE8DFF8D00828E8D9F8D78
:101AA00001969F8F8E8F9AA191509AA3EAA1EE235F
:101AB00051F784E08D8B85E08E8B86E08F8B87E0FD
:101AC000888F198E81E08A8F82E08B8F83E08C8FE4
:101AD0001B8268C08B81282F30E0CE014596FC0127
:101AE000E20FF31F908180E0692F40E00E9484089C
:101AF0001A8243C08A81282F30E0CE014996FC012A
:101B0000E20FF31F90819E012C5F3F4F80E0692F11
:101B1000A9010E94DE098C81882361F58A81282F22
:101B200030E08B81482F50E0220F331F220F331FEC
:101B3000CE010196820F931F840F951FFC013496EE
:101B40008081898311C08A81282F30E0CE01499697
:101B5000FC01E20FF31F90819E012C5F3F4F80E05C
:101B6000692FA9010E94DE098C81882361F3F98124
:101B7000FD8F1EC08A818F5F8A838A81843008F43A
:101B8000B9CF8B81282F30E0CE014596FC01E20FC2
:101B9000F31F908180E0692F41E00E9484088B81CF
:101BA0008F5F8B838B81843008F494CF89818D8FF4
:101BB0008D8DA2960FB6F894DEBF0FBECDBFCF912C
:101BC000DF910895DF93CF93CDB7DEB7EAE3F0E07E
:101BD00080EF8083E7E3F0E08FEF8083E4E3F0E0E1
:101BE0008FEF8083E1E3F0E089EE8083EBE3F0E0C8
:101BF0008FEF8083E8E3F0E01082E5E3F0E010820D
:101C0000E2E3F0E084E08083CF91DF910895DF93F9
:101C1000CF9300D00F92CDB7DEB79A8389836B83C1
:101C2000E981FA818081813051F4E981FA818381EF
:101C3000E981FA819281692F40E00E948408E9815C
:101C4000FA8180818823E1F4E981FA818381E98145
:101C5000FA819281692F40E00E948408E981FA812B
:101C600021818B81882F90E0880F991FFC01EE5312
:101C7000FF4F80819181982F822F692F0E949609B2
:101C80000F900F900F90CF91DF910895DF93CF9336
:101C900000D0CDB7DEB79A838983E981FA8180814C
:101CA000813051F4E981FA818381E981FA8192815D
:101CB000692F41E00E948408E981FA8180818823AC
:101CC00051F4E981FA818381E981FA819281692F56
:101CD00040E00E9484080F900F90CF91DF9108950B
:101CE000DF93CF9300D0CDB7DEB79A838983E981A4
:101CF000FA818081813051F4E981FA818381E9811F
:101D0000FA819281692F40E00E948408E981FA817A
:101D10008081882351F4E981FA818381E981FA8104
:101D20009281692F41E00E9484080F900F90CF911B
:101D3000DF910895DF93CF93CDB7DEB70E94E20D18
:101D40000E94DF060E94FE0A83EC9EE060E00E9493
:101D5000530C0E94110D8091EC00813019F40E9407
:101D6000CD0EF9CF8091EC00823019F40E94D20F91
:101D7000F2CF8091EC00833071F783E063E041E0C3
:101D80000E948408E8CFDF93CF93CDB7DEB781E020
:101D90008093EC00CF91DF910895DF93CF93CDB77F
:101DA000DEB76C970FB6F894DEBF0FBECDBF82E0F2
:101DB00060E00E94260880E690E00E946D0780E0C7
:101DC00090E0AAEFB4E4898F9A8FAB8FBC8F698DB6
:101DD0007A8D8B8D9C8D20E030E04AEF54E40E9498
:101DE0001F02DC01CB018D8B9E8BAF8BB88F6D8971
:101DF0007E898F89988D20E030E040E85FE30E9483
:101E0000790388232CF481E090E09C8B8B8B3FC07E
:101E10006D897E898F89988D20E03FEF4FE757E4E9
:101E20000E94190318164CF5698D7A8D8B8D9C8D47
:101E300020E030E040E251E40E941F02DC01CB01CF
:101E4000BC01CD010E944900DC01CB019C8B8B8B36
:101E50000FC088EC90E09A8B898B89899A890197C9
:101E6000F1F79A8B898B8B899C8901979C8B8B8B43
:101E70008B899C89009769F714C06D897E898F8949
:101E8000988D0E944900DC01CB019C8B8B8B8B8948
:101E90009C89988B8F878F8598890197F1F7988B0C
:101EA0008F8781E00E94A30580E090E0AAE7B4E478
:101EB0008B879C87AD87BE876B857C858D859E854E
:101EC00020E030E04AEF54E40E941F02DC01CB0125
:101ED0008F839887A987BA876F81788589859A8546
:101EE00020E030E040E85FE30E94790388232CF48F
:101EF00081E090E09E838D833FC06F8178858985E6
:101F00009A8520E03FEF4FE757E40E941903181627
:101F10004CF56B857C858D859E8520E030E040E228
:101F200051E40E941F02DC01CB01BC01CD010E94E3
:101F30004900DC01CB019E838D830FC088EC90E0CB
:101F40009C838B838B819C810197F1F79C838B838E
:101F50008D819E8101979E838D838D819E810097C7
:101F600069F714C06F81788589859A850E94490038
:101F7000DC01CB019E838D838D819E819A83898331
:101F800089819A810197F1F79A83898382E080930E
:101F9000EC006C960FB6F894DEBF0FBECDBFCF91AC
:101FA000DF9108950F931F93DF93CF93CDB7DEB7E3
:101FB000CB58D0400FB6F894DEBF0FBECDBFFE01A8
:101FC000E857FF4F1082FE01E857FF4F81E0818301
:101FD000FE01E857FF4F1282FE01E857FF4F83E0F2
:101FE000838380E060E00E9426088DE690E00E94F6
:101FF0006D07FE01E058FF4F108239C00E942D0D81
:10200000FE01EF57FF4F808306C00E942D0DFE0199
:10201000EF57FF4F8083FE01EF57FF4F80818F3FC7
:10202000A1F3FE01E058FF4F8081282F30E0CE0160
:102030008E579F4FDC01A20FB31FFE01EF57FF4FDA
:1020400080818C93FE01EF57FF4F8081882F90E0B5
:10205000A0E0B0E0BC01CD010E949607DE01A058CF
:10206000BF4FFE01E058FF4F80818F5F8C93FE01D0
:10207000E058FF4F8081833008F2FE01EE57FF4F9A
:102080008081813069F4FE01EE57FF4F81818230FB
:1020900039F4FE01EE57FF4F8281833009F470C19D
:1020A000FE01E558FF4F80E090E0AAEFB3E48083A3
:1020B0009183A283B3838E0109581F4FFE01E55817
:1020C000FF4F608171818281938120E030E04AEF8F
:1020D00054E40E941F02DC01CB01F801808391834C
:1020E000A283B383FE01E958FF4F60817181828131
:1020F000938120E030E040E85FE30E947903882389
:1021000044F4FE01EB58FF4F81E090E0918380831F
:1021100064C0FE01E958FF4F608171818281938123
:1021200020E03FEF4FE757E40E94190318160CF028
:1021300043C0FE01E558FF4F608171818281938128
:1021400020E030E040E251E40E941F02DC01CB01BC
:102150008E010B581F4FBC01CD010E944900DC01CC
:10216000CB01F801918380831FC0FE01ED58FF4F22
:1021700088EC90E091838083FE01ED58FF4F8081D1
:1021800091810197F1F7FE01ED58FF4F9183808314
:10219000DE01AB58BF4FFE01EB58FF4F80819181AC
:1021A000019711969C938E93FE01EB58FF4F80810F
:1021B00091810097D1F627C08E010B581F4FFE0169
:1021C000E958FF4F60817181828193810E944900AB
:1021D000DC01CB01F80191838083DE01AF58BF4F52
:1021E000FE01EB58FF4F808191818D939C93FE01FE
:1021F000EF58FF4F808191810197F1F7FE01EF5871
:10220000FF4F9183808381E00E94A30589E790E0DE
:102210000E946D07FE01E359FF4F80E090E0AAE7BE
:10222000B4E480839183A283B3838E0107591F4F47
:10223000FE01E359FF4F608171818281938120E02B
:1022400030E04AEF54E40E941F02DC01CB01F801A8
:1022500080839183A283B383FE01E759FF4F60819E
:1022600071818281938120E030E040E85FE30E9449
:102270007903882344F4FE01E959FF4F81E090E09F
:102280009183808364C0FE01E759FF4F60817181B3
:102290008281938120E03FEF4FE757E40E941903CA
:1022A00018160CF043C0FE01E359FF4F60817181A5
:1022B0008281938120E030E040E251E40E941F02DD
:1022C000DC01CB018E0109591F4FBC01CD010E94D9
:1022D0004900DC01CB01F801918380831FC0FE011E
:1022E000EB59FF4F88EC90E091838083FE01EB591E
:1022F000FF4F808191810197F1F7FE01EB59FF4F6C
:1023000091838083DE01A959BF4FFE01E959FF4F38
:1023100080819181019711969C938E93FE01E959DA
:10232000FF4F808191810097D1F627C08E01095916
:102330001F4FFE01E759FF4F6081718182819381B8
:102340000E944900DC01CB01F80191838083DE010A
:10235000AD59BF4FFE01E959FF4F808191818D93A7
:102360009C93FE01ED59FF4F808191810197F1F718
:10237000FE01ED59FF4F9183808381E00E94A30508
:10238000FE01EE57FF4F8081813009F07CC4FE01D1
:10239000EE57FF4F8181823009F075C4FE01EE5780
:1023A000FF4F8281833009F06EC4FE01E15AFF4F76
:1023B00080E090E0AAEFB3E480839183A283B383AB
:1023C0008E01055A1F4FFE01E15AFF4F6081718156
:1023D0008281938120E030E04AEF54E40E941F02A2
:1023E000DC01CB01F80180839183A283B383FE01DA
:1023F000E55AFF4F608171818281938120E030E056
:1024000040E85FE30E947903882344F4FE01E75A21
:10241000FF4F81E090E09183808364C0FE01E55A24
:10242000FF4F608171818281938120E03FEF4FE710
:1024300057E40E94190318160CF043C0FE01E15A3C
:10244000FF4F608171818281938120E030E040E222
:1024500051E40E941F02DC01CB018E01075A1F4F7D
:10246000BC01CD010E944900DC01CB01F801918340
:1024700080831FC0FE01E95AFF4F88EC90E09183F2
:102480008083FE01E95AFF4F808191810197F1F726
:10249000FE01E95AFF4F91838083DE01A75ABF4FA7
:1024A000FE01E75AFF4F80819181019711969C931D
:1024B0008E93FE01E75AFF4F808191810097D1F6FC
:1024C00027C08E01075A1F4FFE01E55AFF4F60815A
:1024D0007181828193810E944900DC01CB01F80166
:1024E00091838083DE01AB5ABF4FFE01E75AFF4F55
:1024F000808191818D939C93FE01EB5AFF4F8081E7
:1025000091810197F1F7FE01EB5AFF4F9183808390
:1025100081E00E94A30582E890E00E946D07FE0121
:10252000EF5AFF4F80E090E0AAE7B4E48083918304
:10253000A283B3838E01035B1F4FFE01EF5AFF4F4F
:10254000608171818281938120E030E04AEF54E420
:102550000E941F02DC01CB01F80180839183A283DA
:10256000B383FE01E35BFF4F6081718182819381C0
:1025700020E030E040E85FE30E947903882344F4E0
:10258000FE01E55BFF4F81E090E09183808364C0B2
:10259000FE01E35BFF4F608171818281938120E0C6
:1025A0003FEF4FE757E40E94190318160CF043C0A1
:1025B000FE01EF5AFF4F608171818281938120E09B
:1025C00030E040E251E40E941F02DC01CB018E01A9
:1025D000055B1F4FBC01CD010E944900DC01CB010E
:1025E000F801918380831FC0FE01E75BFF4F88ECF9
:1025F00090E091838083FE01E75BFF4F80819181B2
:102600000197F1F7FE01E75BFF4F91838083DE01C5
:10261000A55BBF4FFE01E55BFF4F80819181019774
:1026200011969C938E93FE01E55BFF4F8081918113
:102630000097D1F627C08E01055B1F4FFE01E35BBB
:10264000FF4F60817181828193810E944900DC018A
:10265000CB01F80191838083DE01A95BBF4FFE01AE
:10266000E55BFF4F808191818D939C93FE01E95B37
:10267000FF4F808191810197F1F7FE01E95BFF4FE8
:102680009183808381E00E94A305FE01ED5BFF4FF3
:1026900080E090E0AAEFB3E480839183A283B383C8
:1026A0008E01015C1F4FFE01ED5BFF4F6081718168
:1026B0008281938120E030E04AEF54E40E941F02BF
:1026C000DC01CB01F80180839183A283B383FE01F7
:1026D000FF96608171818281938120E030E040E843
:1026E0005FE30E94790388232CF481E090E09EAFA1
:1026F0008DAF46C0FE01FF9660817181828193811A
:1027000020E03FEF4FE757E40E941903181664F5E5
:10271000FE01ED5BFF4F608171818281938120E03A
:1027200030E040E251E40E941F02DC01CB01BC0119
:10273000CD010E944900DC01CB019EAF8DAF0FC0DF
:1027400088EC90E09CAF8BAF8BAD9CAD0197F1F71F
:102750009CAF8BAF8DAD9EAD01979EAF8DAF8DAD14
:102760009EAD009769F716C0FE01FF9660817181EA
:10277000828193810E944900DC01CB019EAF8DAF25
:102780008DAD9EAD9AAF89AF89AD9AAD0197F1F746
:102790009AAF89AFFE01E158FF4F83E0808364C2A6
:1027A000CE0188579F4F0E94460ECE0188579F4FFB
:1027B000FE01E158FF4F60810E94070E8DE890E016
:1027C0000E946D07FE01E058FF4F108239C00E9441
:1027D0002D0DFE01EF57FF4F808306C00E942D0D87
:1027E000FE01EF57FF4F8083FE01EF57FF4F8081BF
:1027F0008F3FA1F3FE01E058FF4F8081282F30E08A
:10280000CE018B579F4FDC01A20FB31FFE01EF5784
:10281000FF4F80818C93FE01EF57FF4F8081882FFF
:1028200090E0A0E0B0E0BC01CD010E949607DE017F
:10283000A058BF4FFE01E058FF4F80818F5F8C93FF
:10284000FE01E058FF4F8081833008F2FE01EB5714
:10285000FF4F8081833009F0FDC0FE01EB57FF4F31
:102860008181823009F0F6C0FE01EB57FF4F828173
:10287000813009F0EFC080E090E0AAEFB3E48DABC7
:102880009EABAFABB8AF6DA97EA98FA998AD20E084
:1028900030E04AEF54E40E941F02DC01CB0189AB17
:1028A0009AABABABBCAB69A97AA98BA99CA920E078
:1028B00030E040E85FE30E94790388232CF481E054
:1028C00090E098AB8FA73FC069A97AA98BA99CA972
:1028D00020E03FEF4FE757E40E94190318164CF52C
:1028E0006DA97EA98FA998AD20E030E040E251E4C7
:1028F0000E941F02DC01CB01BC01CD010E944900F6
:10290000DC01CB0198AB8FA70FC088EC90E09EA7AD
:102910008DA78DA59EA50197F1F79EA78DA78FA5E1
:1029200098A9019798AB8FA78FA598A9009769F7E9
:1029300014C069A97AA98BA99CA90E944900DC014D
:10294000CB0198AB8FA78FA598A99CA78BA78BA528
:102950009CA50197F1F79CA78BA781E00E94A30596
:102960008AE990E00E946D0780E090E0AAE7B4E475
:102970008FA398A7A9A7BAA76FA178A589A59AA59B
:1029800020E030E04AEF54E40E941F02DC01CB015A
:102990008BA39CA3ADA3BEA36BA17CA18DA19EA183
:1029A00020E030E040E85FE30E94790388232CF4C4
:1029B00081E090E09AA389A33FC06BA17CA18DA187
:1029C0009EA120E03FEF4FE757E40E94190318163D
:1029D0004CF56FA178A589A59AA520E030E040E2EA
:1029E00051E40E941F02DC01CB01BC01CD010E9419
:1029F0004900DC01CB019AA389A30FC088EC90E0C9
:102A000098A38F8F8F8D98A10197F1F798A38F8F3F
:102A100089A19AA101979AA389A389A19AA1009754
:102A200069F714C06BA17CA18DA19EA10E944900F1
:102A3000DC01CB019AA389A389A19AA19E8F8D8FD6
:102A40008D8D9E8D0197F1F79E8F8D8F81E00E9475
:102A5000A30511C1FE01EB57FF4F8081833069F45C
:102A6000FE01EB57FF4F8181823039F4FE01EB57B5
:102A7000FF4F8281813009F4EEC080E090E0AAEF40
:102A8000B3E4898F9A8FAB8FBC8F698D7A8D8B8DD4
:102A90009C8D20E030E04AEF54E40E941F02DC01EC
:102AA000CB018D8B9E8BAF8BB88F6D897E898F8983
:102AB000988D20E030E040E85FE30E9479038823AE
:102AC0002CF481E090E09C8B8B8B3FC06D897E89DC
:102AD0008F89988D20E03FEF4FE757E40E9419035C
:102AE00018164CF5698D7A8D8B8D9C8D20E030E029
:102AF00040E251E40E941F02DC01CB01BC01CD0188
:102B00000E944900DC01CB019C8B8B8B0FC088ECB1
:102B100090E09A8B898B89899A890197F1F79A8B32
:102B2000898B8B899C8901979C8B8B8B8B899C894A
:102B3000009769F714C06D897E898F89988D0E94EE
:102B40004900DC01CB019C8B8B8B8B899C89988BFA
:102B50008F878F8598890197F1F7988B8F8781E010
:102B60000E94A3058BEA90E00E946D0780E090E050
:102B7000AAE7B4E48B879C87AD87BE876B857C858D
:102B80008D859E8520E030E04AEF54E40E941F02CC
:102B9000DC01CB018F839887A987BA876F817885FD
:102BA00089859A8520E030E040E85FE30E94790360
:102BB00088232CF481E090E09E838D833FC06F8159
:102BC000788589859A8520E03FEF4FE757E40E949A
:102BD000190318164CF56B857C858D859E8520E044
:102BE00030E040E251E40E941F02DC01CB01BC0155
:102BF000CD010E944900DC01CB019E838D830FC073
:102C000088EC90E09C838B838B819C810197F1F70A
:102C10009C838B838D819E8101979E838D838D8183
:102C20009E81009769F714C06F81788589859A85A0
:102C30000E944900DC01CB019E838D838D819E81A2
:102C40009A83898389819A810197F1F79A8389838D
:102C500081E00E94A305DE01A158BF4FFE01E158AB
:102C6000FF4F808181508C93FE01E158FF4F80819E
:102C7000882309F095CDCE0188579F4F0E94700E92
:102C800083E08093EC00C557DF4F0FB6F894DEBFAA
:102C90000FBECDBFCF91DF911F910F910895DF93AC
:102CA000CF93CDB7DEB781E00E94A305CF91DF912E
:102CB0000895629FD001739FF001829FE00DF11D86
:102CC000649FE00DF11D929FF00D839FF00D749FA6
:102CD000F00D659FF00D9927729FB00DE11DF91F52
:102CE000639FB00DE11DF91FBD01CF0111240895AF
:102CF000A1E21A2EAA1BBB1BFD010DC0AA1FBB1F00
:102D0000EE1FFF1FA217B307E407F50720F0A21B71
:102D1000B30BE40BF50B661F771F881F991F1A94DE
:102D200069F760957095809590959B01AC01BD0108
:102D3000CF0108952F923F924F925F926F927F92B0
:102D40008F929F92AF92BF92CF92DF92EF92FF92BB
:102D50000F931F93CF93DF93CDB7DEB7CA1BDB0B67
:102D60000FB6F894DEBF0FBECDBF09942A8839880C
:102D700048885F846E847D848C849B84AA84B98413
:102D8000C884DF80EE80FD800C811B81AA81B9811F
:102D9000CE0FD11D0FB6F894DEBF0FBECDBFED0133
:062DA0000895F894FFCF36
:102DA60057454C434F4D4520484F4D4500456E74A1
:102DB6006572204944203A200057726F6E67204999
:102DC6004400436F727265637420494400456E7413
:102DD600657220506173733A2000436F72726563A7
:102DE600742050617373776F72640057726F6E67E9
:102DF6002050617373776F7264000000000000005A
:102E060000003F0006005B004F0066006D007D007D
:102E160007007F006F00070809000405060001028D
:062E2600030000000000A3
:00000001FF
