:100000000C942A000C943F000C943F000C943F0089
:100010000C943F000C943F000C943F000C943F0064
:100020000C943F000C943F000C943F000C943F0054
:100030000C943F000C943F000C943F000C943F0044
:100040000C943F000C943F000C943F000C943F0034
:100050000C943F0011241FBECFE5D8E0DEBFCDBF1A
:1000600011E0A0E6B0E0EAEFFFE202C005900D92D9
:10007000A430B107D9F70E94170B0C94FB170C940E
:100080000000EF92FF920F931F937B018C0120E001
:1000900030E040E05FE40E94410388238CF0C80117
:1000A000B70120E030E040E05FE40E94B9010E9427
:1000B000A1039B01AC01205030404040504806C095
:1000C000C801B7010E94A1039B01AC01B901CA019B
:1000D0001F910F91FF90EF900895A0E0B0E0E3E74B
:1000E000F0E00C94C417DC012B01FA019C919230D2
:1000F00008F439C1EB018881823008F433C19430AF
:1001000069F4843009F02FC111969C91119789816F
:10011000981709F428C1ACE8B0E025C1843009F48F
:1001200021C18230A9F4923009F01DC19A01AD01BC
:1001300088E0EA010990AE01E90109929E0181502F
:10014000C1F7E201898111969C918923818308C1BD
:10015000923009F407C112962D903C901397EB0151
:100160008A819B811496AD90BD90CD90DC901797BD
:10017000EC80FD800E811F819101281B390BB90194
:1001800037FF04C066277727621B730B6032710547
:100190000CF061C0121613066CF537014801062EEB
:1001A00004C096948794779467940A94D2F721E0D8
:1001B00030E040E050E004C0220F331F441F551FC1
:1001C0006A95D2F721503040404050402E213F21C7
:1001D00040235123211531054105510521F021E02E
:1001E00030E040E050E079018A01E628F72808294C
:1001F00019293CC0232BD1F1260E371E35014601AB
:10020000062E04C096948794779467940A94D2F744
:1002100021E030E040E050E004C0220F331F441FD3
:10022000551F6A95D2F721503040404050402A2156
:100230003B214C215D21211531054105510521F05E
:1002400021E030E040E050E059016A01A628B728DB
:10025000C828D9280BC0821593052CF01C01AA24AC
:10026000BB24650103C0EE24FF24870111969C91F5
:10027000D20111968C91981709F445C0992339F051
:10028000A80197012A193B094C095D0906C0A6017E
:1002900095012E193F09400B510B57FD08C01182E3
:1002A0003382228224833583468357831DC081E0B5
:1002B00081833382228288279927DC01821B930B5A
:1002C000A40BB50B84839583A683B7830DC0220F3F
:1002D000331F441F551F24833583468357838281F0
:1002E000938101979383828324813581468157814D
:1002F000DA01C9010197A109B1098F5F9F4FAF4F83
:10030000BF4328F30BC0918333822282EA0CFB1C8B
:100310000C1D1D1DE482F5820683178383E0808314
:10032000248135814681578157FF1AC0C901AA2708
:1003300097FDA095BA2F81709070A070B0705695FF
:10034000479537952795822B932BA42BB52B848328
:100350009583A683B7838281938101969383828359
:10036000DF0101C0D201CD01CDB7DEB7E2E10C94CF
:10037000E017A0E2B0E0EFEBF1E00C94D017698356
:100380007A838B839C832D833E834F835887E9E058
:10039000EE2EF12CEC0EFD1ECE010196B7010E944F
:1003A000CA048E010F5E1F4FCE010596B8010E9450
:1003B000CA048A8991E089278A8BC701B801AE01F6
:1003C000475E5F4F0E946D000E94F503A096E6E035
:1003D0000C94EC17A0E2B0E0E0EFF1E00C94D01741
:1003E00069837A838B839C832D833E834F835887D5
:1003F000F9E0EF2EF12CEC0EFD1ECE010196B701B7
:100400000E94CA048E010F5E1F4FCE010596B801EF
:100410000E94CA04C701B801AE01475E5F4F0E9447
:100420006D000E94F503A096E6E00C94EC17A0E2A4
:10043000B0E0EDE1F2E00C94C41769837A838B831A
:100440009C832D833E834F835887CE010196BE0146
:10045000675F7F4F0E94CA04CE010596BE016F5EA2
:100460007F4F0E94CA049985923088F08989823032
:10047000C8F0943019F4823051F404C0843029F467
:10048000923081F48CE890E0C6C0923049F420E0CC
:100490009A858A89981321E02A87CE010996BBC0E4
:1004A000823049F420E09A858A89981321E02A8BCA
:1004B000CE014196B0C02D843E844F8458886D880B
:1004C0007E888F88988CEE24FF248701AA24BB2481
:1004D000650140E050E060E070E0E0E0F0E0C10184
:1004E00081709070892BE9F0E60CF71C081D191D2E
:1004F0009A01AB012A0D3B1D4C1D5D1D80E090E073
:10050000A0E0B0E0E614F7040805190520F481E046
:1005100090E0A0E0B0E0BA01A901480F591F6A1F9E
:100520007B1FAA0CBB1CCC1CDD1C97FE08C081E005
:1005300090E0A0E0B0E0A82AB92ACA2ADB2A3196C6
:10054000E032F10549F0660C771C881C991C569422
:10055000479437942794C3CFFA85EA892B893C893D
:100560008B859C85280F391F2E5F3F4F17C0CA010E
:1005700081709070892B61F016950795F794E79438
:1005800080E090E0A0E0B0E8E82AF92A0A2B1B2BD3
:1005900076956795579547952F5F3F4F77FDE7CF46
:1005A0000CC0440F551F661F771F17FD4160EE0CEE
:1005B000FF1C001F111F21503040403090E05907B0
:1005C00090E0690790E4790760F32B8F3C8FDB01A3
:1005D000CA018F779070A070B07080349105A1052A
:1005E000B10561F447FD0AC0E114F10401051105EC
:1005F00029F0405C5F4F6F4F7F4F40781A8EFE1797
:1006000011F081E08A8F4D8F5E8F6F8F78A383E02A
:10061000898FCE0149960E94F503A096E2E10C94E1
:10062000E017A8E1B0E0E7E1F3E00C94D0176983AC
:100630007A838B839C832D833E834F83588789E005
:10064000E82EF12CEC0EFD1ECE010196B7010E94A2
:10065000CA048E010F5E1F4FCE010596B8010E949D
:10066000CA048985823040F08989823028F0C70128
:10067000B8010E94420501C08FEF6896E6E00C9435
:10068000EC17A8E1B0E0E7E4F3E00C94D01769833D
:100690007A838B839C832D833E834F83588789E0A5
:1006A000E82EF12CEC0EFD1ECE010196B7010E9442
:1006B000CA048E010F5E1F4FCE010596B8010E943D
:1006C000CA048985823040F08989823028F0C701C8
:1006D000B8010E94420501C08FEF6896E6E00C94D5
:1006E000EC17A8E1B0E0E7E7F3E00C94D0176983DA
:1006F0007A838B839C832D833E834F83588789E045
:10070000E82EF12CEC0EFD1ECE010196B7010E94E1
:10071000CA048E010F5E1F4FCE010596B8010E94DC
:10072000CA048985823040F08989823028F0C70167
:10073000B8010E94420501C081E06896E6E00C9491
:10074000EC17ACE0B0E0E7EAF3E00C94D41769836F
:100750007A838B839C83CE010196BE016B5F7F4FB2
:100760000E94CA048D81823061F1823050F1843060
:1007700021F48E81882351F12EC02F81388537FDD9
:1007800020C06E812F3131051CF06623F9F023C0A3
:100790008EE190E0821B930B29853A854B855C8521
:1007A00004C056954795379527958A95D2F76623C5
:1007B000B1F050954095309521953F4F4F4F5F4F89
:1007C0000EC020E030E040E050E009C02FEF3FEFE6
:1007D0004FEF5FE704C020E030E040E050E8B901AF
:1007E000CA012C96E2E00C94F017DF92EF92FF9290
:1007F0000F931F93FC01E480F58006811781D1805F
:100800008081823048F480E090E0A0E1B0E0E82A06
:10081000F92A0A2B1B2BA5C0843009F49FC0823013
:1008200021F4EE24FF24870105C0E114F104010541
:10083000110519F4E0E0F0E096C0628173819FEF4A
:10084000623879070CF05BC022E83FEF261B370BBC
:100850002A3131052CF020E030E040E050E02AC0A1
:10086000B801A701022E04C0769567955795479564
:100870000A94D2F781E090E0A0E0B0E004C0880FD5
:10088000991FAA1FBB1F2A95D2F70197A109B10989
:100890008E219F21A023B1230097A105B10521F04E
:1008A00081E090E0A0E0B0E09A01AB01282B392B69
:1008B0004A2B5B2BDA01C9018F779070A070B07062
:1008C00080349105A105B10539F427FF09C0205CEA
:1008D0003F4F4F4F5F4F04C0215C3F4F4F4F5F4F23
:1008E000E0E0F0E02030A0E03A07A0E04A07A0E412
:1008F0005A0710F0E1E0F0E079018A0127C0603882
:10090000710564F5FB01E158FF4FD801C7018F77EE
:100910009070A070B07080349105A105B10539F4D4
:10092000E7FE0DC080E490E0A0E0B0E004C08FE3FB
:1009300090E0A0E0B0E0E80EF91E0A1F1B1F17FFB1
:1009400005C016950795F794E794319687E01695BC
:100950000795F794E7948A95D1F705C0EE24FF2414
:100960008701EFEFF0E06E2F679566276795902F70
:100970009F77D794DD24D7948E2F8695492F462BC9
:10098000582F5D29B701CA011F910F91FF90EF9079
:10099000DF900895FC01DB01408151812281622FAB
:1009A0006F7770E0221F2227221F9381892F880FE3
:1009B000822B282F30E0991F9927991F11969C931D
:1009C000119721153105A9F54115510561057105ED
:1009D00011F482E037C082E89FEF13969C938E93C8
:1009E00012979A01AB0167E0220F331F441F551F76
:1009F0006A95D1F783E08C930DC0220F331F441FFB
:100A0000551F12968D919C911397019713969C9365
:100A10008E931297203080E0380780E0480780E40A
:100A2000580758F314962D933D934D935C93179765
:100A300008952F3F310579F4411551056105710580
:100A400019F484E08C93089564FF03C081E08C93D3
:100A500012C01C9210C02F57304013963C932E9317
:100A6000129783E08C9387E0440F551F661F771F12
:100A70008A95D1F7706414964D935D936D937C9332
:100A8000179708951F93DC01FB019C91923008F4A5
:100A900047C08081823008F443C0943051F41196ED
:100AA0001C91843099F58181682F70E0611B710978
:100AB0003FC0843021F0923031F48230B9F181812D
:100AC000882389F12DC011961C9111978230F1F085
:100AD00081811817D9F412962D913C911397828138
:100AE00093818217930794F028173907BCF0149666
:100AF0008D919D910D90BC91A02D248135814681D1
:100B00005781281739074A075B0718F4112341F06A
:100B10000AC082179307A407B50740F4112319F000
:100B200061E070E005C06FEF7FEF02C060E070E051
:100B3000CB011F910895DF93CF93CDB7DEB72F97E9
:100B40000FB6F894DEBF0FBECDBF8F8781E060E0A7
:100B500040E00E947C0881E061E040E00E947C0867
:100B600080E06F850E948E0981E062E041E00E9492
:100B70007C0880E090E0A0E0B0E48B879C87AD87A4
:100B8000BE876B857C858D859E8520E030E04AEFB1
:100B900054E40E941702DC01CB018F839887A98758
:100BA000BA876F81788589859A8520E030E040E8B2
:100BB0005FE30E94710388232CF481E090E09E8320
:100BC0008D833FC06F81788589859A8520E03FEFCE
:100BD0004FE757E40E94110318164CF56B857C858E
:100BE0008D859E8520E030E040E251E40E941702AE
:100BF000DC01CB01BC01CD010E944100DC01CB0135
:100C00009E838D830FC088EC90E09C838B838B81C7
:100C10009C810197F1F79C838B838D819E81019745
:100C20009E838D838D819E81009769F714C06F81AB
:100C3000788589859A850E944100DC01CB019E83DD
:100C40008D838D819E819A83898389819A81019781
:100C5000F1F79A83898381E062E040E00E947C089A
:100C60002F960FB6F894DEBF0FBECDBFCF91DF91A8
:100C70000895DF93CF93CDB7DEB72F970FB6F894D3
:100C8000DEBF0FBECDBF8F8781E060E041E00E94F4
:100C90007C0881E061E040E00E947C0880E06F8594
:100CA0000E948E0981E062E041E00E947C0880E0C1
:100CB00090E0A0E0B0E48B879C87AD87BE876B8512
:100CC0007C858D859E8520E030E04AEF54E40E94CB
:100CD0001702DC01CB018F839887A987BA876F81C0
:100CE000788589859A8520E030E040E85FE30E94BE
:100CF000710388232CF481E090E09E838D833FC0B4
:100D00006F81788589859A8520E03FEF4FE757E42A
:100D10000E94110318164CF56B857C858D859E8588
:100D200020E030E040E251E40E941702DC01CB01F8
:100D3000BC01CD010E944100DC01CB019E838D836B
:100D40000FC088EC90E09C838B838B819C81019702
:100D5000F1F79C838B838D819E8101979E838D8388
:100D60008D819E81009769F714C06F817885898590
:100D70009A850E944100DC01CB019E838D838D8189
:100D80009E819A83898389819A810197F1F79A8359
:100D9000898381E062E040E00E947C082F960FB6D4
:100DA000F894DEBF0FBECDBFCF91DF910895DF93E2
:100DB000CF93CDB7DEB72E970FB6F894DEBF0FBE38
:100DC000CDBF80E090E0A0E2B2E48B879C87AD8746
:100DD000BE876B857C858D859E8520E030E04AEF5F
:100DE00054E40E941702DC01CB018F839887A98706
:100DF000BA876F81788589859A8520E030E040E860
:100E00005FE30E94710388232CF481E090E09E83CD
:100E10008D833FC06F81788589859A8520E03FEF7B
:100E20004FE757E40E94110318164CF56B857C853B
:100E30008D859E8520E030E040E251E40E9417025B
:100E4000DC01CB01BC01CD010E944100DC01CB01E2
:100E50009E838D830FC088EC90E09C838B838B8175
:100E60009C810197F1F79C838B838D819E810197F3
:100E70009E838D838D819E81009769F714C06F8159
:100E8000788589859A850E944100DC01CB019E838B
:100E90008D838D819E819A83898389819A8101972F
:100EA000F1F79A83898388E30E949B058CE00E9476
:100EB0009B0581E00E949B052E960FB6F894DEBF3D
:100EC0000FBECDBFCF91DF910895DF93CF9300D0B8
:100ED0000F92CDB7DEB79B838A8319820EC08981BA
:100EE000282F30E08A819B81FC01E20FF31F808173
:100EF0000E94390689818F5F89838981282F30E09C
:100F00008A819B81FC01E20FF31F8081882339F7DE
:100F10000F900F900F90CF91DF910895DF93CF93B3
:100F2000CDB7DEB72E970FB6F894DEBF0FBECDBF9C
:100F30006B877C878D879E878AE08A871E821F82C7
:100F4000188619861D8280E09AECAAE9BBE38983A2
:100F50009A83AB83BC838AE08A878B859C85AD8529
:100F6000BE8529813A814B815C81BC01CD010E9403
:100F7000A217DA01C9010097A105B10519F48D8105
:100F80008130E9F581E08D838B859C85AD85BE85BB
:100F900029813A814B815C81BC01CD010E94A2175D
:100FA000DA01C9018E839F83A887B9878E819F81CB
:100FB000A885B9858A309105A105B105B0F58E8166
:100FC000805D0E9439068E819F81A885B98529811F
:100FD0003A814B815C81BC01CD010E9483179B014A
:100FE000AC018B859C85AD85BE85BC01CD010E9481
:100FF000A217DC01CB018B879C87AD87BE878981D7
:101000009A81AB81BC812AE030E040E050E0BC0135
:10101000CD010E94A217DA01C90189839A83AB83AB
:10102000BC838A8581508A8798CF2E960FB6F89414
:10103000DEBF0FBECDBFCF91DF910895DF93CF9379
:1010400000D00F92CDB7DEB78A836B838B81882364
:1010500019F48A81898306C08B81813019F48A81D1
:10106000805C8983898180580E949B050F900F9036
:101070000F90CF91DF910895DF93CF93CDB7DEB777
:1010800027970FB6F894DEBF0FBECDBF9C838B832E
:101090006D834E832F838D81882F90E0880F991F59
:1010A000880F991F880F991F8A838A81805C0E940C
:1010B0009B0519820EC08981282F30E08B819C818D
:1010C000FC01E20FF31F80810E94390689818F5F46
:1010D00089838981883078F38E816F810E941E0810
:1010E0008D810E94390627960FB6F894DEBF0FBE99
:1010F000CDBFCF91DF910895DF93CF93CDB7DEB70A
:1011000028970FB6F894DEBF0FBECDBF8A836B83DE
:101110004C8319828B81883008F0F4C08C8188233D
:1011200009F077C08A81282F30E038872F838F819C
:1011300098858130910559F12F813885223031050C
:101140002CF48F819885009769F060C02F813885D5
:101150002230310589F18F8198858330910509F41A
:1011600040C054C0ABE3B0E0EBE3F0E08081482F37
:101170008B81282F30E081E090E0022E02C0880FA2
:10118000991F0A94E2F7809584238C93BDC0A8E34D
:10119000B0E0E8E3F0E08081482F8B81282F30E039
:1011A00081E090E0022E02C0880F991F0A94E2F7B6
:1011B000809584238C93A8C0A5E3B0E0E5E3F0E03C
:1011C0008081482F8B81282F30E081E090E0022E33
:1011D00002C0880F991F0A94E2F7809584238C93AC
:1011E00093C0A2E3B0E0E2E3F0E08081482F8B817E
:1011F000282F30E081E090E0022E02C0880F991F76
:101200000A94E2F7809584238C937EC081E08983E1
:101210007BC08C81813009F072C08A81282F30E038
:101220003E832D838D819E818130910549F12D81F1
:101230003E81223031052CF48D819E81009761F032
:101240005BC02D813E812230310571F18D819E81FF
:1012500083309105E9F150C0ABE3B0E0EBE3F0E09F
:101260008081482F8B81282F30E081E090E0022E92
:1012700002C0880F991F0A94E2F7842B8C9344C014
:10128000A8E3B0E0E8E3F0E08081482F8B81282FCD
:1012900030E081E090E0022E02C0880F991F0A948E
:1012A000E2F7842B8C9330C0A5E3B0E0E5E3F0E0F7
:1012B0008081482F8B81282F30E081E090E0022E42
:1012C00002C0880F991F0A94E2F7842B8C931CC0EC
:1012D000A2E3B0E0E2E3F0E08081482F8B81282F89
:1012E00030E081E090E0022E02C0880F991F0A943E
:1012F000E2F7842B8C9308C081E0898305C081E0EC
:10130000898302C081E08983898128960FB6F89489
:10131000DEBF0FBECDBFCF91DF910895DF93CF9396
:1013200000D000D00F92CDB7DEB78A836B831982CD
:101330008A81282F30E03D832C838C819D818130F0
:101340009105D1F02C813D81223031052CF48C8126
:101350009D81009761F01FC02C813D8122303105B5
:1013600081F08C819D818330910581F014C0EBE385
:10137000F0E08B81808311C0E8E3F0E08B81808313
:101380000CC0E5E3F0E08B81808307C0E2E3F0E08E
:101390008B81808302C081E0898389810F900F90C7
:1013A0000F900F900F90CF91DF910895DF93CF931F
:1013B000CDB7DEB727970FB6F894DEBF0FBECDBF0F
:1013C0008A836B835D834C8319828C819D81009716
:1013D00009F478C08B81883008F074C08A81282F86
:1013E00030E03F832E834E815F814130510559F1BA
:1013F0008E819F818230910534F42E813F812115A9
:10140000310569F05CC04E815F814230510579F150
:101410008E819F818330910509F43DC050C0E9E37E
:10142000F0E08081282F30E08B81882F90E0A901A7
:1014300002C0559547958A95E2F7CA018170EC8103
:10144000FD81808341C0E6E3F0E08081282F30E019
:101450008B81882F90E0A90102C0559547958A9508
:10146000E2F7CA018170EC81FD8180832DC0E3E346
:10147000F0E08081282F30E08B81882F90E0A90157
:1014800002C0559547958A95E2F7CA018170EC81B3
:10149000FD81808319C0E0E3F0E08081282F30E0F7
:1014A0008B81882F90E0A90102C0559547958A95B8
:1014B000E2F7CA018170EC81FD81808305C081E083
:1014C000898302C081E08983898127960FB6F894C9
:1014D000DEBF0FBECDBFCF91DF910895DF93CF93D5
:1014E00000D000D00F92CDB7DEB78A836B8319820C
:1014F0008B81883008F071C08A81282F30E03D83CD
:101500002C838C819D818130910549F12C813D8115
:10151000223031052CF48C819D81009761F05BC0F5
:101520002C813D812230310571F18C819D81833088
:101530009105E9F150C0ABE3B0E0EBE3F0E080816E
:10154000482F8B81282F30E081E090E0022E02C0EE
:10155000880F991F0A94E2F784278C933EC0A8E372
:10156000B0E0E8E3F0E08081482F8B81282F30E065
:1015700081E090E0022E02C0880F991F0A94E2F7E2
:1015800084278C932AC0A5E3B0E0E5E3F0E08081F6
:10159000482F8B81282F30E081E090E0022E02C09E
:1015A000880F991F0A94E2F784278C9316C0A2E350
:1015B000B0E0E2E3F0E08081482F8B81282F30E01B
:1015C00081E090E0022E02C0880F991F0A94E2F792
:1015D00084278C9302C081E0898389810F900F90CA
:1015E0000F900F900F90CF91DF910895DF93CF93DD
:1015F000CDB7DEB7EAE3F0E08FEF8083E7E3F0E01A
:1016000087E08083E4E3F0E01082E1E3F0E0108221
:10161000EBE3F0E01082E8E3F0E01082E5E3F0E0D5
:101620001082E2E3F0E01082CF91DF9108950F93F2
:101630001F93DF93CF93CDB7DEB7CA59D1400FB612
:10164000F894DEBF0FBECDBF0E94F60A0E94D706F7
:10165000CE0180579F4FCA5BDE4F99838883C65463
:10166000D14080E690E0C85BDE4F99838883C85400
:10167000D14090E1C65BDE4F9883CA54D140C85B2D
:10168000DE4FE881F981C854D1400080C85BDE4F4D
:1016900088819981C854D1400196C85BDE4F9983F7
:1016A0008883C854D140CA5BDE4FE881F981C654B3
:1016B000D1400082CA5BDE4F88819981C654D140F7
:1016C0000196CA5BDE4F99838883C654D140C65BBE
:1016D000DE4F9881CA54D1409150C65BDE4F98834B
:1016E000CA54D140C65BDE4FE881CA54D140EE23D4
:1016F00031F6CE0180569F4FC55BDE4F99838883BC
:10170000CB54D14080E790E0C35BDE4F9983888360
:10171000CD54D1409CE0C15BDE4F9883CF54D14083
:10172000C35BDE4FE881F981CD54D1400080C35BBB
:10173000DE4F88819981CD54D1400196C35BDE4F45
:1017400099838883CD54D140C55BDE4FE881F98110
:10175000CB54D1400082C55BDE4F88819981CB5448
:10176000D1400196C55BDE4F99838883CB54D1402D
:10177000C15BDE4F9881CF54D1409150C15BDE4FA9
:101780009883CF54D140C15BDE4FE881CF54D14024
:10179000EE2331F6CE0184559F4FC05BDE4F998317
:1017A0008883C055D1408CE790E0CE5ADE4F9983B4
:1017B0008883C255D14090E1CC5ADE4F9883C455FE
:1017C000D140CE5ADE4FE881F981C255D140008028
:1017D000CE5ADE4F88819981C255D1400196CE5AAA
:1017E000DE4F99838883C255D140C05BDE4FE881CC
:1017F000F981C055D1400082C05BDE4F888199815C
:10180000C055D1400196C05BDE4F99838883C05597
:10181000D140CC5ADE4F9881C455D1409150CC5A1A
:10182000DE4F9883C455D140CC5ADE4FE881C45571
:10183000D140EE2331F6CE0184549F4FCB5ADE4F78
:1018400099838883C555D1408CEF90E0C95ADE4F0B
:1018500099838883C755D14098E0C75ADE4F988353
:10186000C955D140C95ADE4FE881F981C755D140E9
:101870000080C95ADE4F88819981C755D1400196B1
:10188000C95ADE4F99838883C755D140CB5ADE4F62
:10189000E881F981C555D1400082CB5ADE4F88815D
:1018A0009981C555D1400196CB5ADE4F99838883E3
:1018B000C555D140C75ADE4F9881C955D140915086
:1018C000C75ADE4F9883C955D140C75ADE4FE881C9
:1018D000C955D140EE2331F6CE018C539F4FC65AE5
:1018E000DE4F99838883CA55D14084EF90E0C45A73
:1018F000DE4F99838883CC55D14098E0C25ADE4FA1
:101900009883CE55D140C45ADE4FE881F981CC5539
:10191000D1400080C45ADE4F88819981CC55D14096
:101920000196C45ADE4F99838883CC55D140C65A5C
:10193000DE4FE881F981CA55D1400082C65ADE4F98
:1019400088819981CA55D1400196C65ADE4F998344
:101950008883CA55D140C25ADE4F9881CE55D140B6
:101960009150C25ADE4F9883CE55D140C25ADE4FB5
:10197000E881CE55D140EE2331F6CE0184539F4FFE
:10198000C15ADE4F99838883CF55D1408CEE90E0C9
:10199000CF59DE4F99838883C156D14098E0CD5905
:1019A000DE4F9883C356D140CF59DE4FE881F9818D
:1019B000C156D1400080CF59DE4F88819981C156F0
:1019C000D1400196CF59DE4F99838883C156D140CB
:1019D000C15ADE4FE881F981CF55D1400082C15A0A
:1019E000DE4F88819981CF55D1400196C15ADE4F93
:1019F00099838883CF55D140CD59DE4F9881C35606
:101A0000D1409150CD59DE4F9883C356D140CD5926
:101A1000DE4FE881C356D140EE2331F6CE018C5221
:101A20009F4FCC59DE4F99838883C456D14084EEB2
:101A300090E0CA59DE4F99838883C656D14098E01A
:101A4000C859DE4F9883C856D140CA59DE4FE88145
:101A5000F981C656D1400080CA59DE4F88819981EC
:101A6000C656D1400196CA59DE4F99838883C6561F
:101A7000D140CC59DE4FE881F981C456D140008273
:101A8000CC59DE4F88819981C456D1400196CC59FA
:101A9000DE4F99838883C456D140C859DE4F988160
:101AA000C856D1409150C859DE4F9883C856D1408E
:101AB000C859DE4FE881C856D140EE2331F6CE0139
:101AC00084529F4FC759DE4F99838883C956D140AE
:101AD0008CED90E0C559DE4F99838883CB56D14079
:101AE00098E0C359DE4F9883CD56D140C559DE4F9B
:101AF000E881F981CB56D1400080C559DE4F8881FD
:101B00009981CB56D1400196C559DE4F9983888380
:101B1000CB56D140C759DE4FE881F981C956D14033
:101B20000082C759DE4F88819981C956D1400196FC
:101B3000C759DE4F99838883C956D140C359DE4FB8
:101B40009881CD56D1409150C359DE4F9883CD56E0
:101B5000D140C359DE4FE881CD56D140EE2331F656
:101B6000CE018C519F4FC259DE4F99838883CE5648
:101B7000D14084ED90E0C059DE4F99838883C057EF
:101B8000D14098E0CE58DE4F9883C257D140C0591B
:101B9000DE4FE881F981C057D1400080C059DE4F47
:101BA00088819981C057D1400196C059DE4F9983F1
:101BB0008883C057D140C259DE4FE881F981CE56A3
:101BC000D1400082C259DE4F88819981CE56D140E2
:101BD0000196C259DE4F99838883CE56D140CE58A4
:101BE000DE4F9881C257D1409150CE58DE4F988336
:101BF000C257D140CE58DE4FE881C257D140EE23C4
:101C000031F6CE0184519F4FCD58DE4F99838883A2
:101C1000C357D1408CEC90E0CB58DE4F998388833A
:101C2000C557D14098E0C958DE4F9883C757D14077
:101C3000CB58DE4FE881F981C557D1400080CB58A1
:101C4000DE4F88819981C557D1400196CB58DE4F30
:101C500099838883C557D140CD58DE4FE881F981FB
:101C6000C357D1400082CD58DE4F88819981C35738
:101C7000D1400196CD58DE4F99838883C357D14018
:101C8000C958DE4F9881C757D1409150C958DE4F8F
:101C90009883C757D140C958DE4FE881C757D14014
:101CA000EE2331F6CE018C509F4FC858DE4F9983FA
:101CB0008883C857D14084EC90E0C658DE4F9983A2
:101CC0008883CA57D14098E0C458DE4F9883CC57D8
:101CD000D140C658DE4FE881F981CA57D140008013
:101CE000C658DE4F88819981CA57D1400196C6589F
:101CF000DE4F99838883CA57D140C858DE4FE881A8
:101D0000F981C857D1400082C858DE4F8881998137
:101D1000C857D1400196C858DE4F99838883C85769
:101D2000D140C458DE4F9881CC57D1409150C4580F
:101D3000DE4F9883CC57D140C458DE4FE881CC5752
:101D4000D140EE2331F6CE0184509F4FC358DE4F71
:101D500099838883CD57D1408CEB90E0C158DE4FFA
:101D600099838883CF57D14098E0CF57DE4F98832F
:101D7000C158D140C158DE4FE881F981CF57D140D9
:101D80000080C158DE4F88819981CF57D14001969C
:101D9000C158DE4F99838883CF57D140C358DE4F57
:101DA000E881F981CD57D1400082C358DE4F888148
:101DB0009981CD57D1400196C358DE4F99838883CE
:101DC000CD57D140CF57DE4F9881C158D140915067
:101DD000CF57DE4F9883C158D140CF57DE4FE881AF
:101DE000C158D140EE2331F6FE01EC5FFE4FCE012B
:101DF0008C539F4F91838083FE01EC5FFE4FCE0199
:101E000084539F4F93838283FE01EC5FFE4FCE018C
:101E10008C529F4F95838483FE01EC5FFE4FCE0171
:101E200084529F4F97838683FE01EC5FFE4FCE0165
:101E30008C519F4F91878087FE01EC5FFE4FCE0152
:101E400084519F4F93878287FE01EC5FFE4FCE0146
:101E50008C509F4F95878487FE01EC5FFE4FCE012B
:101E600084509F4F97878687CE018C5E9E4FCE57BA
:101E7000DE4F99838883C258D14084EB90E0CC57E1
:101E8000DE4F99838883C458D14098E0CA57DE4F0B
:101E90009883C658D140CC57DE4FE881F981C458A9
:101EA000D1400080CC57DE4F88819981C458D14001
:101EB0000196CC57DE4F99838883C458D140CE57C2
:101EC000DE4FE881F981C258D1400082CE57DE4F03
:101ED00088819981C258D1400196CE57DE4F9983AF
:101EE0008883C258D140CA57DE4F9881C658D14026
:101EF0009150CA57DE4F9883C658D140CA57DE4F1B
:101F0000E881C658D140EE2331F6CE01845E9E4F63
:101F1000C957DE4F99838883C758D1408CEA90E037
:101F2000C757DE4F99838883C958D14098E0C55779
:101F3000DE4F9883CB58D140C757DE4FE881F981F7
:101F4000C958D1400080C757DE4F88819981C95850
:101F5000D1400196C757DE4F99838883C958D14035
:101F6000C957DE4FE881F981C758D1400082C9576F
:101F7000DE4F88819981C758D1400196C957DE4FFD
:101F800099838883C758D140C557DE4F9881CB5875
:101F9000D1409150C557DE4F9883CB58D140C5579B
:101FA000DE4FE881CB58D140EE2331F6CE018C5D77
:101FB0009E4FC457DE4F99838883CC58D14084EA22
:101FC00090E0C257DE4F99838883CE58D14098E085
:101FD000C057DE4F9883C059D140C257DE4FE881C9
:101FE000F981CE58D1400080C257DE4F8881998157
:101FF000CE58D1400196C257DE4F99838883CE5880
:10200000D140C457DE4FE881F981CC58D1400082DD
:10201000C457DE4F88819981CC58D1400196C4576E
:10202000DE4F99838883CC58D140C057DE4F9881CA
:10203000C059D1409150C057DE4F9883C059D1400C
:10204000C057DE4FE881C059D140EE2331F6CE01B2
:10205000845D9E4FCF56DE4F99838883C159D1400E
:102060008CE990E0CD56DE4F99838883C359D140E7
:1020700098E0CB56DE4F9883C559D140CD56DE4F00
:10208000E881F981C359D1400080CD56DE4F888167
:102090009981C359D1400196CD56DE4F99838883EB
:1020A000C359D140CF56DE4FE881F981C159D140A3
:1020B0000082CF56DE4F88819981C159D140019667
:1020C000CF56DE4F99838883C159D140CB56DE4F1E
:1020D0009881C559D1409150CB56DE4F9883C55950
:1020E000D140CB56DE4FE881C559D140EE2331F6C1
:1020F000CE018C5C9E4FCA56DE4F99838883C659A9
:10210000D14084E990E0C856DE4F99838883C8594E
:10211000D14098E0C656DE4F9883CA59D140C85680
:10212000DE4FE881F981C859D1400080C856DE4FA2
:1021300088819981C859D1400196C856DE4F99834C
:102140008883C859D140CA56DE4FE881F981C65903
:10215000D1400082CA56DE4F88819981C659D1404C
:102160000196CA56DE4F99838883C659D140C65618
:10217000DE4F9881CA59D1409150C656DE4F9883A0
:10218000CA59D140C656DE4FE881CA59D140EE2324
:1021900031F6FE01E45CFE4FCE018C5E9E4F9183D2
:1021A0008083FE01E45CFE4FCE01845E9E4F9383EC
:1021B0008283FE01E45CFE4FCE018C5D9E4F9583D1
:1021C0008483FE01E45CFE4FCE01845D9E4F9783C5
:1021D0008683FE01E45CFE4FCE018C5C9E4F9187AE
:1021E000808780E060E00E941E08CE0180579F4FEC
:1021F0000E946507FE01E757FF4F80E090E0AAEFDD
:10220000B4E480839183A283B3838E010B571F4F65
:10221000FE01E757FF4F608171818281938120E049
:1022200030E04AEF54E40E941702DC01CB01F801D0
:1022300080839183A283B383FE01EB57FF4F6081BC
:1022400071818281938120E030E040E85FE30E9469
:102250007103882344F4FE01ED57FF4F81E090E0C5
:102260009183808364C0FE01EB57FF4F60817181D1
:102270008281938120E03FEF4FE757E40E941103F2
:1022800018160CF043C0FE01E757FF4F60817181C3
:102290008281938120E030E040E251E40E94170205
:1022A000DC01CB018E010D571F4FBC01CD010E94F7
:1022B0004100DC01CB01F801918380831FC0FE0146
:1022C000EF57FF4F88EC90E091838083FE01EF573A
:1022D000FF4F808191810197F1F7FE01EF57FF4F8A
:1022E00091838083DE01AD57BF4FFE01ED57FF4F55
:1022F00080819181019711969C938E93FE01ED57F9
:10230000FF4F808191810097D1F627C08E010D5734
:102310001F4FFE01EB57FF4F6081718182819381D6
:102320000E944100DC01CB01F80191838083DE0132
:10233000A158BF4FFE01ED57FF4F808191818D93D2
:102340009C93FE01E158FF4F808191810197F1F745
:10235000FE01E158FF4F9183808387E061E00E9496
:102360001E08CE0184549F4F60E047E021E00E94A8
:102370003C08FE01E558FF4F80E090E8ABE3B5E490
:1023800080839183A283B3838E0109581F4FFE017E
:10239000E558FF4F608171818281938120E030E0B8
:1023A0004AEF54E40E941702DC01CB01F80180835C
:1023B0009183A283B383FE01E958FF4F608171814D
:1023C0008281938120E030E040E85FE30E94710366
:1023D000882344F4FE01EB58FF4F81E090E09183A5
:1023E000808364C0FE01E958FF4F60817181828162
:1023F000938120E03FEF4FE757E40E941103181646
:102400000CF043C0FE01E558FF4F6081718182816D
:10241000938120E030E040E251E40E941702DC01A9
:10242000CB018E010B581F4FBC01CD010E94410012
:10243000DC01CB01F801918380831FC0FE01ED58C0
:10244000FF4F88EC90E091838083FE01ED58FF4FB1
:10245000808191810197F1F7FE01ED58FF4F918343
:102460008083DE01AB58BF4FFE01EB58FF4F8081E8
:102470009181019711969C938E93FE01EB58FF4F2B
:10248000808191810097D1F627C08E010B581F4F94
:10249000FE01E958FF4F60817181828193810E9422
:1024A0004100DC01CB01F80191838083DE01AF584C
:1024B000BF4FFE01EB58FF4F808191818D939C931C
:1024C000FE01EF58FF4F808191810197F1F7FE01E6
:1024D000EF58FF4F9183808381E00E949B05FE01AE
:1024E000E359FF4F80E090E0AAE7B4E48083918352
:1024F000A283B3838E0107591F4FFE01E359FF4F9B
:10250000608171818281938120E030E04AEF54E460
:102510000E941702DC01CB01F80180839183A28322
:10252000B383FE01E759FF4F6081718182819381FE
:1025300020E030E040E85FE30E947103882344F428
:10254000FE01E959FF4F81E090E09183808364C0F0
:10255000FE01E759FF4F608171818281938120E004
:102560003FEF4FE757E40E94110318160CF043C0E9
:10257000FE01E359FF4F608171818281938120E0E8
:1025800030E040E251E40E941702DC01CB018E01F1
:1025900009591F4FBC01CD010E944100DC01CB0154
:1025A000F801918380831FC0FE01EB59FF4F88EC37
:1025B00090E091838083FE01EB59FF4F80819181F0
:1025C0000197F1F7FE01EB59FF4F91838083DE0104
:1025D000A959BF4FFE01E959FF4F808191810197B1
:1025E00011969C938E93FE01E959FF4F8081918152
:1025F0000097D1F627C08E0109591F4FFE01E759F8
:10260000FF4F60817181828193810E944100DC01D2
:10261000CB01F80191838083DE01AD59BF4FFE01EC
:10262000E959FF4F808191818D939C93FE01ED5973
:10263000FF4F808191810197F1F7FE01ED59FF4F26
:102640009183808382E060E00E941E08CE01805664
:102650009F4F0E946507FE01E15AFF4F80E090E026
:10266000AAEFB4E480839183A283B3838E01055AD9
:102670001F4FFE01E15AFF4F60817181828193817A
:1026800020E030E04AEF54E40E941702DC01CB0165
:10269000F80180839183A283B383FE01E55AFF4F43
:1026A000608171818281938120E030E040E85FE3C6
:1026B0000E947103882344F4FE01E75AFF4F81E032
:1026C00090E09183808364C0FE01E55AFF4F6081F2
:1026D00071818281938120E03FEF4FE757E40E94B0
:1026E000110318160CF043C0FE01E15AFF4F608140
:1026F00071818281938120E030E040E251E40E94C8
:102700001702DC01CB018E01075A1F4FBC01CD011E
:102710000E944100DC01CB01F801918380831FC03E
:10272000FE01E95AFF4F88EC90E091838083FE011F
:10273000E95AFF4F808191810197F1F7FE01E95A33
:10274000FF4F91838083DE01A75ABF4FFE01E75AF6
:10275000FF4F80819181019711969C938E93FE018A
:10276000E75AFF4F808191810097D1F628C08E01F2
:10277000075A1F4FFE01E55AFF4F60817181828128
:1027800093810E944100DC01CB01F8019183808399
:10279000DE01AB5ABF4FFE01E75AFF4F80819181A6
:1027A00011969C938E93FE01EB5AFF4F808191818D
:1027B0000197F1F7FE01EB5AFF4F91838083FE01F1
:1027C000E157FF4F1082E5C0FE01E157FF4F8081C6
:1027D000882F90E09E012C5F3E4F880F991FF901D2
:1027E000E80FF91F20813181FE01E157FF4F808101
:1027F000482F4C5FFE01E157FF4FC901608121E086
:102800000E943C08FE01EF5AFF4F80E090E0AAEFE3
:10281000B3E480839183A283B3838E01035B1F4F54
:10282000FE01EF5AFF4F608171818281938120E028
:1028300030E04AEF54E40E941702DC01CB01F801BA
:1028400080839183A283B383FE01E35BFF4F6081AA
:1028500071818281938120E030E040E85FE30E9453
:102860007103882344F4FE01E55BFF4F81E090E0B3
:102870009183808364C0FE01E35BFF4F60817181BF
:102880008281938120E03FEF4FE757E40E941103DC
:1028900018160CF043C0FE01EF5AFF4F60817181A2
:1028A0008281938120E030E040E251E40E941702EF
:1028B000DC01CB018E01055B1F4FBC01CD010E94E5
:1028C0004100DC01CB01F801918380831FC0FE0130
:1028D000E75BFF4F88EC90E091838083FE01E75B2C
:1028E000FF4F808191810197F1F7FE01E75BFF4F78
:1028F00091838083DE01A55BBF4FFE01E55BFF4F47
:1029000080819181019711969C938E93FE01E55BE6
:10291000FF4F808191810097D1F627C08E01055B22
:102920001F4FFE01E35BFF4F6081718182819381C4
:102930000E944100DC01CB01F80191838083DE011C
:10294000A95BBF4FFE01E55BFF4F808191818D93B5
:102950009C93FE01E95BFF4F808191810197F1F724
:10296000FE01E95BFF4F91838083FE01E157FF4F3A
:1029700080818C5F61E00E941E0880E20E9439061F
:10298000DE01A157BF4FFE01E157FF4F80818F5FEE
:102990008C93FE01E157FF4F8081883008F414CFFB
:1029A00081E00E949B05FE01ED5BFF4F80E090E01F
:1029B000AAE7B4E480839183A283B3838E01015C90
:1029C0001F4FFE01ED5BFF4F60817181828193811A
:1029D00020E030E04AEF54E40E941702DC01CB0112
:1029E000F80180839183A283B383FE01FF96608107
:1029F00071818281938120E030E040E85FE30E94B2
:102A0000710388232CF481E090E09EAF8DAF46C027
:102A1000FE01FF96608171818281938120E03FEF0A
:102A20004FE757E40E941103181664F5FE01ED5BB1
:102A3000FF4F608171818281938120E030E040E22C
:102A400051E40E941702DC01CB01BC01CD010E94C0
:102A50004100DC01CB019EAF8DAF0FC088EC90E050
:102A60009CAF8BAF8BAD9CAD0197F1F79CAF8BAF5B
:102A70008DAD9EAD01979EAF8DAF8DAD9EAD009794
:102A800069F716C0FE01FF96608171818281938192
:102A90000E944100DC01CB019EAF8DAF8DAD9EAD9C
:102AA0009AAF89AF89AD9AAD0197F1F79AAF89AF27
:102AB00080E060E00E941E08CE0184559F4F0E9476
:102AC000650780E090E0AAEFB4E48DAB9EABAFABBE
:102AD000B8AF6DA97EA98FA998AD20E030E04AEF8C
:102AE00054E40E941702DC01CB0189AB9AABABAB7B
:102AF000BCAB69A97AA98BA99CA920E030E040E889
:102B00005FE30E94710388232CF481E090E098AB8E
:102B10008FA73FC069A97AA98BA99CA920E03FEFA4
:102B20004FE757E40E94110318164CF56DA97EA9D2
:102B30008FA998AD20E030E040E251E40E941702F6
:102B4000DC01CB01BC01CD010E944100DC01CB01C5
:102B500098AB8FA70FC088EC90E09EA78DA78DA59E
:102B60009EA50197F1F79EA78DA78FA598A901971C
:102B700098AB8FA78FA598A9009769F714C069A98A
:102B80007AA98BA99CA90E944100DC01CB0198ABDA
:102B90008FA78FA598A99CA78BA78BA59CA501970C
:102BA000F1F79CA78BA7FE01E257FF4F108290C060
:102BB000FE01E257FF4F8081882F90E09E01245C48
:102BC0003E4F880F991FF901E80FF91F808191810D
:102BD00060E047E021E00E943C0880E090E0AAEF3E
:102BE000B3E48FA398A7A9A7BAA76FA178A589A5D1
:102BF0009AA520E030E04AEF54E40E941702DC017D
:102C0000CB018BA39CA3ADA3BEA36BA17CA18DA183
:102C10009EA120E030E040E85FE30E94710388233A
:102C20002CF481E090E09AA389A33FC06BA17CA122
:102C30008DA19EA120E03FEF4FE757E40E941103D2
:102C400018164CF56FA178A589A59AA520E030E06B
:102C500040E251E40E941702DC01CB01BC01CD012E
:102C60000E944100DC01CB019AA389A30FC088EC2C
:102C700090E098A38F8F8F8D98A10197F1F798A37B
:102C80008F8F89A19AA101979AA389A389A19AA15B
:102C9000009769F714C06BA17CA18DA19EA10E9431
:102CA0004100DC01CB019AA389A389A19AA19E8F3F
:102CB0008D8F8D8D9E8D0197F1F79E8F8D8FDE010B
:102CC000A257BF4FFE01E257FF4F80818F5F8C9369
:102CD000FE01E257FF4F8081853008F469CFFE0185
:102CE000E357FF4F84E0808391C0FE01E357FF4F1D
:102CF0008081992787FD90959E01245C3E4F880F27
:102D0000991FF901E80FF91F8081918160E047E088
:102D100021E00E943C0880E090E0AAEFB3E4898FB4
:102D20009A8FAB8FBC8F698D7A8D8B8D9C8D20E0B7
:102D300030E04AEF54E40E941702DC01CB018D8B96
:102D40009E8BAF8BB88F6D897E898F89988D20E09F
:102D500030E040E85FE30E94710388232CF481E0B7
:102D600090E09C8B8B8B3FC06D897E898F89988D7D
:102D700020E03FEF4FE757E40E94110318164CF58F
:102D8000698D7A8D8B8D9C8D20E030E040E251E49E
:102D90000E941702DC01CB01BC01CD010E94410061
:102DA000DC01CB019C8B8B8B0FC088EC90E09A8B65
:102DB000898B89899A890197F1F79A8B898B8B89FD
:102DC0009C8901979C8B8B8B8B899C89009769F7D9
:102DD00014C06D897E898F89988D0E944100DC0125
:102DE000CB019C8B8B8B8B899C89988B8F878F8554
:102DF00098890197F1F7988B8F87DE01A357BF4F12
:102E0000FE01E357FF4F808181508C93FE01E35711
:102E1000FF4F808188230CF068CF81E00E949B05E2
:102E200080E090E0AAE7B4E48B879C87AD87BE87FB
:102E30006B857C858D859E8520E030E04AEF54E4EB
:102E40000E941702DC01CB018F839887A987BA877C
:102E50006F81788589859A8520E030E040E85FE3DE
:102E60000E94710388232CF481E090E09E838D837F
:102E70003FC06F81788589859A8520E03FEF4FE7D5
:102E800057E40E94110318164CF56B857C858D85DF
:102E90009E8520E030E040E251E40E941702DC0110
:102EA000CB01BC01CD010E944100DC01CB019E831E
:102EB0008D830FC088EC90E09C838B838B819C81F9
:102EC0000197F1F79C838B838D819E8101979E836F
:102ED0008D838D819E81009769F783C96F81788585
:102EE00089859A850E944100DC01CB019E838D83F8
:102EF0008D819E819A83898389819A810197F1F7D7
:102F00009A8389836EC9629FD001739FF001829F6B
:102F1000E00DF11D649FE00DF11D929FF00D839F68
:102F2000F00D749FF00D659FF00D9927729FB00D05
:102F3000E11DF91F639FB00DE11DF91FBD01CF0118
:102F400011240895A1E21A2EAA1BBB1BFD010DC07E
:102F5000AA1FBB1FEE1FFF1FA217B307E407F50749
:102F600020F0A21BB30BE40BF50B661F771F881F25
:102F7000991F1A9469F760957095809590959B01BB
:102F8000AC01BD01CF0108952F923F924F925F9205
:102F90006F927F928F929F92AF92BF92CF92DF9269
:102FA000EF92FF920F931F93CF93DF93CDB7DEB7CE
:102FB000CA1BDB0B0FB6F894DEBF0FBECDBF099462
:102FC0002A88398848885F846E847D848C849B84B9
:102FD000AA84B984C884DF80EE80FD800C811B81C7
:102FE000AA81B981CE0FD11D0FB6F894DEBF0FBEF6
:0A2FF000CDBFED010895F894FFCF66
:102FFA0048492049274D2048414D4F4B53484100ED
:10300A00492043414E2044414E4345004920504CFB
:10301A00415920464F4F5442414C4C000000000099
:10302A000000000007070A02020E02020707020A4E
:10303A0002060A02070702020A060A020707020232
:10304A0002020E0A07070202020A060A0E0E140CF0
:10305A00140206190E0E050605080C130E0E121E92
:10306A0002060A120E0E090F080C0A090E0E151F87
:10307A0004040A110E0E141F05040A110E0E051F70
:10308A0014040A110E0E041F04040A110E0E041F62
:04309A0004040A110F
:00000001FF
